:020000040800F2
:1000000000020020C1010008F11E0008417401082F
:10001000F11E0008F11E0008F11E0008F11E000884
:10002000F11E0008F11E0008F11E0008312700082B
:10003000F11E0008F11E0008F11E0008F11E000864
:10004000F11E0008114B0008A14B0008D14B00081D
:10005000F11E0008F11E000831490008614900083E
:1000600091490008C1490008F14900081140000801
:100070004140000871400008A1400008D14000083C
:10008000014100083141000831960008F11E0008C6
:10009000F11E0008F11E0008F11E0008214A0008A8
:1000A000F11E000861500008F11E0008F11E000852
:1000B00041430008B152000881500008F11E0008B9
:1000C000F11E0008F11E0008F11E0008F11E0008D4
:1000D000F11E000841540008F11E0008F11E00083E
:1000E000914A0008414B0008714B0008F11E0008BE
:1000F000F11E0008F11E0008F11E0008F11E0008A4
:10010000F11E0008F11E0008F11E0008F11E000893
:10011000F11E0008F11E0008F11E0008F11E000883
:100120006141000891410008C1410008F141000807
:1001300021420008F11E0008F11E0008F11E00080F
:10014000014C0008614C0008C14C0008F11E000879
:10015000F11E0008F11E0008F11E0008F11E000843
:10016000F11E0008F11E0008F11E000831570008BA
:10017000F11E0008F11E0008F11E0008F11E000823
:10018000F11E0008F11E0008F11E0008F11E000813
:10019000F11E0008F11E0008F11E0008F11E000803
:1001C00072B6344880F3098840F20000CCF2000097
:1001D0004EF63471CEF200010860BFF34F8FBFF3CB
:1001E0006F8F40F20000C0F2F0004EF68851CEF260
:1001F00000010860BFF34F8FBFF36F8F4FF0000017
:10020000E1EE100A4EF63C71CEF2000108600620C5
:1002100080F31488BFF36F8F01F032FE05F0C0FC4D
:100220004FF055301C491D4A91423CBF41F8040B28
:10023000FAE71B49174A91423CBF41F8040BFAE721
:100240001849194A194B9A423EBF51F8040B42F81B
:10025000040BF8E700201649164A91423CBF41F8CA
:10026000040BFAE701F024FE01F012FE124C134DCC
:10027000AC4203DA54F8041B8847F9E716F0C8FDCE
:100280000F4C104DAC4203DA54F8041B8847F9E7D1
:1002900001F006BE800600200000002000020020C1
:1002A0000002002000EA0208800600203415002029
:1002B00038150020DC810020A0010008A001000802
:1002C000A0010008A00100080000000000000000DC
:1002D0002DE9F04F2DED108AC1F80CD0C3689D4672
:1002E000BDEC108ABDE8F08F002383F31188284607
:1002F000A047002002F05CF902F06AF800DFFEE798
:1003000008B52DED028BB0EE408A00F0F9F8B4EE9E
:10031000488AF1EE10FA0FD6B5EEC08AF1EE10FA67
:100320000ADCB5EE408AF1EE10FA08D101F018FCB3
:1003300022239FED090A0360BDEC028B08BD01F08A
:100340000FFCBDEC028B034621221A600348BDE876
:10035000084000F02DB800BF000080FF644B020889
:1003600010EE103AC3F3C7527F3A162A194615DC2D
:10037000002A0CDB0C481041184205D04FF48003D2
:1003800013410B4423EA000300EE103A7047013298
:1003900003F00043F8D143F07E53F5E7802AF3D110
:1003A00030EE000A704700BFFFFF7F000000000032
:1003B0009FED010A704700BF0000C07F00000000F1
:1003C00008B52DED028BB0EE408A00F099F9F0EE01
:1003D000408AB0EE480A00F083F868B1DFED127A87
:1003E000B4EEE78AF1EE10FA0BDCDFED107AB4EE32
:1003F000E78AF1EE10FA0FD4B0EE680ABDEC028B7A
:1004000008BDDFED0B8A01F0ABFBB0EE680ABDEC76
:10041000028B2223036008BD01F0A2FB2223DFED43
:10042000058A0360E8E700BF1772B142B5F1CFC299
:100430000000807F000000000000000000000000BD
:1004400010EE102AC2F3C7537F3B162B22F0004157
:1004500029DC002B104618DB1A4919410A4221D029
:10046000DFED197A70EE277AF5EEC07AF1EE10FA28
:1004700018DD002A04DA4FF4000242FA03F31844AC
:1004800020EA010300EE103A7047DFED0F7A70EEBC
:10049000277AF5EEC07AF1EE10FA03DD002A08DBC8
:1004A0009FED0A0A7047B1F1FF4FFBD330EE000A0F
:1004B0007047DFED077A0029BFEE000A08BFB0EEF3
:1004C000670A7047FFFF7F00CAF249710000000011
:1004D000000000800000000000000000000000009C
:1004E00010EE103A23F00040B0F1FF4FACBF0020F7
:1004F0000120704700000000000000000000000024
:1005000010EE102A32F000432FD0002A134633DBBE
:10051000B2F1FF4F40DAB2F5000F34DB4FF0000CC0
:100520006448C3F31601084400F4000282F07E52CE
:100530000A43DB1500EE102A7F3B5F4A634401F15A
:100540000F0CF7EE007A0CEA020230EE670A03EBBA
:10055000D05322BBB5EE400AF1EE10FA62D1002B67
:1005600040F090809FED550A70479FED557ADFED82
:10057000537A87EE270A704770EE407A9FED4F7AE4
:1005800087EE870A7047DFED4F7A60EE277A6FF0CB
:10059000180C17EE903AC3E730EE000A7047F0EE01
:1005A000007A70EE277A07EE103A80EE274A464826
:1005B000C1F55712084402F522720243002A9FED4A
:1005C000433ADFED434ADFED435ADFED433A9FED17
:1005D000435ADFED437ADFED436A24EE046AF8EE16
:1005E000C72A26EE067AE7EE034AA7EE235AE4EE80
:1005F000875AE5EE076AE5EE877A67EE867AE6EED9
:10060000877A2ADDB6EE007A20EE077A27EE007AA6
:1006100077EE877A67EE847A3BBB37EE677A30EE07
:10062000470A70479FED307AF6EE007AE0EE477A9F
:1006300020EE007A27EE277A002BF0D007EE903AD2
:100640009FED2A6ADFED2A6AF8EEE77AA7EEC67A0E
:1006500037EE400A97EEA60A704770EE677A67EEAB
:10066000847AE3B930EE670A70479FED206ADFEDC8
:10067000206AE2EE867A37EE677A37EE400A92EE2B
:10068000A60A704707EE903A9FED180A9FED187A78
:10069000F8EEE77A27EE800AA7EE870A7047DFEDCB
:1006A000136A9FED137AE2EEE67A37EEC00A92EE15
:1006B000870A704720FB4A00F0FF7F00000000001F
:1006C000000000CC0000004C305CCFFF9788173E44
:1006D00025333A3E2549923E4FD01C3E298E633E3B
:1006E000ABAA2A3FCDCCCC3EABAAAA3ED1F7173756
:1006F0008071313F00000000000000000000000099
:1007000010EE103A23F00042B2F1FF4F53D84FEAF7
:10071000D37100F092806148834200F38480002B03
:10072000C0F284805E4B9A4248D95E4B9A4200F2F6
:1007300097805D4A02EB8102D2ED004AD2ED027A47
:1007400081F0010370EE644A5B1A34EEE70ADFEDD4
:10075000576A9FED575ADFED575A9FED576A20EEC3
:10076000007AA7EE265ADFED556AE5EE075AE5EE68
:10077000876AA6EE876AF0EE406AE6EE476A20EEE8
:10078000266A002B42D0B0EE007A37EE667AB7EEDA
:10079000000AC6EE076A13F17D0F77EEE67A77EE70
:1007A000E47A30EE670A4FDB10EE102A02EBC353F7
:1007B00000EE103A704730EE000A7047B2F1505F19
:1007C0000AD2DFED3F7A70EE277AB7EE007AF4EEC8
:1007D000C77AF1EE10FA5DDC60EE007A9FED337AB5
:1007E000DFED335A9FED336ADFED346AE7EE875A67
:1007F0009FED317AA7EEA56AE7EE866AA7EEA67AA4
:10080000F0EE406AE7EEC76A20EE266AF0EE007A64
:1008100076EEE76AB7EE007AC6EE267A77EEC07A11
:1008200037EE670A7047002000F07CB8254B9A42EB
:100830007FF678AF002000F06FB8DFED237A002953
:1008400018BFB0EE670A704710EE102A643302EB4F
:10085000C353DFED1E7A00EE103A20EE270A7047F0
:10086000114B9FED1B7ADFED1B6A03EB8103D3ED88
:10087000047AE0EE077A9FED187AFDEEE77AF0EE63
:10088000404A17EE903AF8EEE77AE7EEE64A67EE6E
:10089000877A5AE730EE070A704700BF1772B142F5
:1008A0001872B13E9115853F904A02084CBB313316
:1008B0000EEADDB555B38A38ABAA2A3E610B36BBCA
:1008C000CAF24971B5F1CF42000000000000800D6E
:1008D0003BAAB83F8071313FD1F7173700000000C5
:1008E00010B52DED028BB0EE408A044601F038F9C8
:1008F000B0EE480ABDEC028B046010BD28B1F1EEE9
:10090000407A27EE800A2220EAE7F0EE407A27EECE
:10091000800A2220E4E700BF9FED010AEEE700BF56
:10092000000000109FED010AE8E700BF0000007022
:1009300000289FED060AF7EE007ABFEE007A18BF96
:10094000F0EE477A87EE800A2220C9E70000000017
:10095000F0EE407A30EE407AF4EE677AF1EE10FA7B
:1009600087EE070A01D62120BAE770470000000091
:1009700081F0004102E000BF83F0004330B54FEA50
:1009800041044FEA430594EA050F08BF90EA020FBD
:100990001FBF54EA000C55EA020C7FEA645C7FEA50
:1009A000655C00F0E2804FEA5454D4EB5555B8BF73
:1009B0006D420CDD2C4480EA020281EA030382EAE4
:1009C000000083EA010180EA020281EA0303362D76
:1009D00088BF30BD11F0004F4FEA01314FF4801C49
:1009E0004CEA113102D0404261EB410113F0004F5B
:1009F0004FEA03334CEA133302D0524263EB430312
:100A000094EA050F00F0A780A4F10104D5F1200EAF
:100A10000DDB02FA0EFC22FA05F2801841F100010A
:100A200003FA0EF2801843FA05F359410EE0A5F1DE
:100A300020050EF1200E012A03FA0EFC28BF4CF00F
:100A4000020C43FA05F3C01851EBE37101F00045C5
:100A500007D54FF0000EDCF1000C7EEB00006EEBD2
:100A60000101B1F5801F1BD3B1F5001F0CD349085C
:100A70005FEA30004FEA3C0C04F101044FEA4452B3
:100A800012F5800F80F09A80BCF1004F08BF5FEA3A
:100A9000500C50F1000041EB045141EA050130BD1A
:100AA0005FEA4C0C404141EB0101013C28BFB1F52C
:100AB000801FE9D291F0000F04BF01460020B1FA77
:100AC00081F308BF2033A3F10B03B3F120020CDA4A
:100AD0000C3208DD02F1140CC2F10C0201FA0CF028
:100AE00021FA02F10CE002F11402D8BFC2F1200C8D
:100AF00001FA02F120FA0CFCDCBF41EA0C01904043
:100B0000E41AA2BF01EB0451294330BD6FEA04048B
:100B10001F3C1CDA0C340EDC04F11404C4F1200276
:100B200020FA04F001FA02F340EA030021FA04F388
:100B300045EA030130BDC4F10C04C4F1200220FADF
:100B400002F001FA04F340EA0300294630BD21FA1D
:100B500004F0294630BD94F0000F83F4801306BFE3
:100B600081F480110134013D4EE77FEA645C18BFD7
:100B70007FEA655C29D094EA050F08BF90EA020F6E
:100B800005D054EA000C04BF1946104630BD91EA66
:100B9000030F1EBF0021002030BD5FEA545C05D169
:100BA0004000494128BF41F0004130BD14F58004A8
:100BB0003CBF01F5801130BD01F0004545F0FE411C
:100BC00041F470014FF0000030BD7FEA645C1ABF51
:100BD000194610467FEA655C1CBF0B46024650EA88
:100BE000013406BF52EA033591EA030F41F40021B4
:100BF00030BD00BF90F0000F04BF0021704730B53A
:100C00004FF4806404F132044FF000054FF000010E
:100C100050E700BF90F0000F04BF0021704730B5CF
:100C20004FF4806404F1320410F0004548BF4042A4
:100C30004FF000013EE700BF42004FEAE2014FEAF9
:100C400031014FEA02701FBF12F07F4393F07F4FD4
:100C500081F06051704732F07F4208BF704793F0D7
:100C60007F4F04BF41F40021704730B54FF46074EA
:100C700001F0004521F000411CE700BF50EA0102ED
:100C800008BF704730B54FF000050AE050EA010296
:100C900008BF704730B511F0004502D5404261EB06
:100CA00041014FF4806404F132045FEA915C3FF447
:100CB000D8AE4FF003025FEADC0C18BF03325FEAE4
:100CC000DC0C18BF033202EBDC02C2F1200300FA95
:100CD00003FC20FA02F001FA03FE40EA0E0021FABA
:100CE00002F11444BDE600BF000000000000000057
:100CF00070B54FF0FF0C4CF4E06C1CEA11541DBFB2
:100D00001CEA135594EA0C0F95EA0C0F00F0DEF87C
:100D10002C4481EA030621EA4C5123EA4C5350EA61
:100D2000013518BF52EA033541F4801143F48013B2
:100D300038D0A0FB02CE4FF00005E1FB02E506F043
:100D40000042E0FB03E54FF00006E1FB03569CF098
:100D5000000F18BF4EF0010EA4F1FF04B6F5007F9E
:100D600064F5407404D25FEA4E0E6D4146EB060610
:100D700042EAC62141EA55514FEAC52040EA5E5099
:100D80004FEACE2EB4F1FD0C88BFBCF5E06F1ED843
:100D9000BEF1004F08BF5FEA500E50F1000041EB7A
:100DA000045170BD06F0004646EA010140EA020027
:100DB00081EA0301B4EB5C04C2BFD4EB0C0541EA49
:100DC000045170BD41F480114FF0000E013C00F35E
:100DD000AB8014F1360FDEBF002001F0004170BD82
:100DE000C4F10004203C35DA0C341BDC04F114049B
:100DF000C4F1200500FA05F320FA04F001FA05F227
:100E000040EA020001F0004221F0004110EBD370F3
:100E100021FA04F642EB06015EEA430E08BF20EA1F
:100E2000D37070BDC4F10C04C4F1200500FA04F3C2
:100E300020FA05F001FA04F240EA020001F0004154
:100E400010EBD37041F100015EEA430E08BF20EAC7
:100E5000D37070BDC4F1200500FA05F24EEA020E0F
:100E600020FA04F301FA05F243EA020321FA04F03E
:100E700001F0004121FA04F220EA020000EBD370F5
:100E80005EEA430E08BF20EAD37070BD94F0000FF5
:100E90000FD101F00046400041EB010111F4801F29
:100EA00008BF013CF7D041EA060195F0000F18BFDA
:100EB000704703F00046520043EB030313F4801F16
:100EC00008BF013DF7D043EA0603704794EA0C0FD0
:100ED0000CEA135518BF95EA0C0F0CD050EA4106E6
:100EE00018BF52EA4306D1D181EA030101F0004163
:100EF0004FF0000070BD50EA410606BF104619468B
:100F000052EA430619D094EA0C0F02D150EA013696
:100F100013D195EA0C0F05D152EA03361CBF1046D7
:100F200019460AD181EA030101F0004141F0FE4176
:100F300041F470014FF0000070BD41F0FE4141F4FA
:100F4000780170BD70B54FF0FF0C4CF4E06C1CEAFA
:100F500011541DBF1CEA135594EA0C0F95EA0C0FAF
:100F600000F0A7F8A4EB050481EA030E52EA03356A
:100F70004FEA013100F088804FEA03334FF080558B
:100F800045EA131343EA12634FEA022245EA1115B8
:100F900045EA10654FEA00260EF000419D4208BF69
:100FA000964244F1FD0404F5407402D25B084FEA16
:100FB0003202B61A65EB03055B084FEA32024FF4C2
:100FC00080104FF4002CB6EB020E75EB030E22BF1F
:100FD000B61A754640EA0C005B084FEA3202B6EBDF
:100FE000020E75EB030E22BFB61A754640EA5C008E
:100FF0005B084FEA3202B6EB020E75EB030E22BF1E
:10100000B61A754640EA9C005B084FEA3202B6EB1E
:10101000020E75EB030E22BFB61A754640EADC00DD
:1010200055EA060E18D04FEA051545EA16754FEA3F
:1010300006164FEAC30343EA52734FEAC2025FEA5D
:101040001C1CC0D111F4801F0BD141EA00014FF0EC
:1010500000004FF0004CB6E711F4801F04BF0143BD
:101060000020B4F1FD0C88BFBCF5E06F3FF6AFAED9
:10107000B5EB030C04BFB6EB020C5FEA500C50F169
:10108000000041EB045170BD0EF0004E4EEA1131EC
:1010900014EB5C04C2BFD4EB0C0541EA045170BDF3
:1010A00041F480114FF0000E013C90E645EA060E37
:1010B0008DE60CEA135594EA0C0F08BF95EA0C0F65
:1010C0003FF43BAF94EA0C0F0AD150EA01347FF4AD
:1010D00034AF95EA0C0F7FF425AF104619462CE784
:1010E00095EA0C0F06D152EA03353FF4FDAE1046E7
:1010F000194622E750EA410618BF52EA43067FF438
:10110000C5AE50EA41047FF40DAF52EA43057FF4C7
:10111000EBAE12E70000000000000000000000003D
:101120004FEA4102B2F1E04324BFB3F5001CDCF109
:10113000FE5C0DD901F0004C4FEAC0024CEA507041
:10114000B2F1004F40EB830008BF20F00100704770
:1011500011F0804F21D113F13872BCBF01F0004073
:10116000704741F480114FEA5252C2F11802C2F1A5
:10117000200C10FA0CF320FA02F018BF40F0010026
:101180004FEAC1234FEAD32303FA0CFC40EA0C00D8
:1011900023FA02F34FEA4303CCE77FEA625307D115
:1011A00050EA01331EBF4FF0FE4040F4400070474C
:1011B00001F0004040F0FE4040F40000704700BFE6
:1011C00080F0004002E000BF81F0004142001FBFFC
:1011D0005FEA410392EA030F7FEA226C7FEA236C05
:1011E0006AD04FEA1262D2EB1363C1BFD2184140FA
:1011F00048404140B8BF5B42192B88BF704710F090
:10120000004F40F4000020F07F4018BF404211F032
:10121000004F41F4000121F07F4118BF494292EA9A
:10122000030F3FD0A2F1010241FA03FC10EB0C00C6
:10123000C3F1200301FA03F100F0004302D5494253
:1012400060EB4000B0F5000F13D3B0F1807F06D300
:1012500040084FEA310102F10102FE2A51D2B1F1F8
:10126000004F40EBC25008BF20F0010040EA0300ED
:101270007047490040EB0000013A28BFB0F5000F6D
:10128000EDD2B0FA80FCACF1080CB2EB0C0200FA23
:101290000CF0AABF00EBC25052421843BCBFD04072
:1012A0001843704792F0000F81F4000106BF80F4EC
:1012B00000000132013BB5E74FEA41037FEA226CAF
:1012C00018BF7FEA236C21D092EA030F04D092F07A
:1012D000000F08BF0846704790EA010F1CBF0020AE
:1012E000704712F07F4F04D1400028BF40F000400B
:1012F000704712F100723CBF00F50000704700F02B
:10130000004343F0FE4040F4000070477FEA226251
:1013100016BF08467FEA23630146420206BF5FEA22
:10132000412390EA010F40F4800070474FF0000322
:1013300004E000BF10F0004348BF40425FEA000CE9
:1013400008BF704743F0964301464FF000001CE091
:1013500050EA010208BF70474FF000030AE000BFE7
:1013600050EA010208BF704711F0004302D5404225
:1013700061EB41015FEA010C02BF84460146002097
:1013800043F0B64308BFA3F18053A3F50003BCFAB2
:101390008CF2083AA3EBC25310DB01FA02FC63445F
:1013A00000FA02FCC2F12002BCF1004F20FA02F266
:1013B00043EB020008BF20F00100704702F1200259
:1013C00001FA02FCC2F1200250EA4C0021FA02F2BA
:1013D00043EB020008BF20EADC7070470000000009
:1013E0007BB972B90029BEBF00204FF0004106E072
:1013F00008BF00281CBF6FF000414FF0FF3000F025
:10140000F7B9ADF1080C6DE904CE002909DB002B1A
:101410001ADB00F08DF8DDF804E0DDE9022304B00A
:101420007047404261EB4101002B1BDB00F080F86C
:10143000DDF804E0DDE9022304B0404261EB410144
:10144000524263EB43037047524263EB430300F0A5
:101450006FF8DDF804E0DDE9022304B0404261EBFF
:1014600041017047524263EB430300F061F8DDF83D
:1014700004E0DDE9022304B0524263EB430370470A
:1014800053B94AB9002908BF00281CBF4FF0FF31EB
:101490004FF0FF3000F0ACB9ADF1080C6DE904CEAF
:1014A00000F046F8DDF804E0DDE9022304B07047FF
:1014B000D0B5FFF7C1FB0C4B002206460F46FFF7E5
:1014C00017FC00F09DF90446FFF794FB074B002240
:1014D000FFF70EFC02460B4630463946FFF74CFA42
:1014E00000F08EF92146D0BD0000F03D0000F04133
:1014F000D0B50C4B002206460F46FFF7F9FB00F073
:101500007FF90446FFF776FB074B0022FFF7F0FB5D
:1015100002460B4630463946FFF72EFA00F070F9C6
:101520002146D0BD0000F03D0000F0410000000069
:101530002DE9F047089D0E4604460F46002B4AD180
:1015400094468C45B2FA82F260D942B1C2F12003CE
:10155000974020FA03F30CFA02FC1F4394404FEA31
:101560001C4E1FFA8CF6B7FBFEF1230C0EFB117715
:1015700043EA074301FB06F098420AD91CEB030338
:1015800001F1FF3780F01581984240F21281023953
:1015900063441B1AA4B2B3FBFEF00EFB103344EA03
:1015A000034400FB06F6A6420AD91CEB040400F132
:1015B000FF3380F00081A64240F2FD80644402388F
:1015C00040EA0140A41B00211DB1D4400023C5E91D
:1015D0000043BDE8F0878B4205D90DB1C5E9000194
:1015E00000210846F5E7B3FA83F1002946D1B3425A
:1015F00002D3824200F2F580841A66EB03020120D6
:101600001746002DE5D0C5E90047E2E7002A40F083
:101610009380A1EB0C034FEA1C471FFA8CFE0121BB
:10162000B3FBF7F607FB1630230C43EA00430EFB2F
:1016300006F0984208D91CEB030306F1FF3802D2EA
:10164000984200F2D08046461B1AA4B2B3FBF7F0D2
:1016500007FB103344EA03440EFB00FEA64508D9FD
:101660001CEB040400F1FF3302D2A64500F2B68061
:101670001846A4EB0E0440EA0640A5E7C1F1200796
:101680008B4022FA07FC4CEA030C06FA01FE20FA12
:1016900007F426FA07F344EA0E0400FA01F84FEAC9
:1016A0001C404FEA1449B3FBF0FE1FFA8CF600FB16
:1016B0001E3349EA03430EFB06F9994502FA01F28B
:1016C0000BD91CEB03030EF1FF3A80F0858099459E
:1016D00040F28280AEF1020E6344A3EB0909A4B28A
:1016E000B9FBF0F300FB139944EA094403FB06F647
:1016F000A64208D91CEB040403F1FF3068D2A642CD
:1017000066D9023B644443EA0E40A41BA0FB02E6F8
:10171000B4427346B14652D34FD05DB1B8EB030229
:1017200064EB090404FA07F722FA01F31F43CC40E3
:10173000C5E9007400214CE7C2F1200120FA01F351
:101740000CFA02FC26FA01F1964033434FEA1C479B
:101750001FFA8CFEB1FBF7F007FB1016190C41EADB
:10176000064100FB0EF68E4204FA02F408D91CEB87
:10177000010100F1FF382DD28E422BD9023861448D
:10178000891B9BB2B1FBF7F607FB161143EA014335
:1017900006FB0EF1994208D91CEB030306F1FF3852
:1017A00014D2994212D9023E63445B1A46EA0041C0
:1017B00036E73946EDE6184602E7F045ADD2BEEB16
:1017C000020366EB0C060138B146A6E74646ECE795
:1017D000034698E74046D3E7D6467EE7644402389E
:1017E00047E708460DE7023E63442DE7000000008E
:1017F000704700BF00000000000000000000000073
:101800004A0011D212F5001211D20DD56FF478737F
:10181000B3EB62520ED44FEAC12343F0004343EAD4
:10182000505323FA02F070474FF00000704750EA1F
:10183000013002D14FF0FF3070474FF00000704789
:1018400011F0FF01034600F0030239D08ABB0268A1
:1018500010B501EB012E0EEB0E4E8EEA0204A2F142
:10186000013323EA0203A4F1013222EA0402134302
:1018700013F0803F0FD150F8044F84EA0E0CA4F10E
:101880000133ACF1013223EA040322EA0C021343D0
:1018900013F0803FEFD0037823B936E010F8013F12
:1018A000002B32D09942F9D110BD8A4228D09A0734
:1018B00029D01A7818460133002AF6D1104670470D
:1018C000CAB90268A2F1013323EA020313F0803F90
:1018D00008D150F8042FA2F1013323EA020313F0D8
:1018E000803FF6D003785BB110F8013F002BFBD1AD
:1018F0007047990705D0184613F8012B002AF8D134
:1019000070471846DDE71846A1E7184610BD00BF2E
:1019100080EA0102844612F0030F4FD111F0030F49
:1019200032D14DF8044D11F0040F51F8043B0BD0A7
:10193000A3F101329A4312F0803F04BF4CF8043BFC
:1019400051F8043B16D100BF51F8044BA3F101320A
:101950009A4312F0803FA4F101320BD14CF8043BC2
:10196000A24312F0803F04BF51F8043B4CF8044BF3
:10197000EAD023460CF8013B13F0FF0F4FEA332364
:10198000F8D15DF8044B704711F0010F06D011F843
:10199000012B0CF8012B002A08BF704711F0020F31
:1019A000BFD031F8022B12F0FF0F16BF2CF8022B1C
:1019B0008CF8002012F47F4FB3D1704711F8012B3F
:1019C0000CF8012B002AF9D1704700BF000000007D
:1019D00030B490F800F020F007016FF0000C10F028
:1019E000070491F820F040F048804FF000046FF0B9
:1019F0000700D1E9002391F840F000F1080082FAD5
:101A00004CF2A4FA8CF283FA4CF3A2FA8CF34BBB9F
:101A1000D1E9022382FA4CF200F10800A4FA8CF218
:101A200083FA4CF3A2FA8CF3E3B9D1E9042382FAE6
:101A30004CF200F10800A4FA8CF283FA4CF3A2FAFB
:101A40008CF37BB9D1E9062301F1200182FA4CF233
:101A500000F10800A4FA8CF283FA4CF3A2FA8CF39A
:101A6000002BC6D0002A04BF04301A4612BAB2FABC
:101A700082F200EBD20030BC7047D1E9002304F0C1
:101A80000305C4F100004FEAC50514F0040F91F8F6
:101A900040F00CFA05F562EA05021CBF63EA050393
:101AA00062464FF00004AAE70000000000000000BA
:101AB000830730B547D0541E002A3ED0CAB2034631
:101AC00001E0013C39D303F8012B9D07F9D1032C28
:101AD0002CD9CDB205EB05250F2C05EB054535D9E5
:101AE000A4F1100222F00F0C03F1100EE6444FEAAD
:101AF000121C1A46C2E90055C2E90255103272455D
:101B0000F8D10CF1010214F00C0F03EB021204F0F7
:101B10000F0C13D0ACF1040323F00303043313447C
:101B200042F8045B9342FBD10CF003042CB1C9B220
:101B30001C4403F8011BA342FBD130BD644613468D
:101B4000002CF4D1F9E703461446C0E71A46A44630
:101B5000E0E700BF000000000000000000000000FF
:101B6000014B1868704700BF80060020000000008D
:101B700088420ED98B1883420BD900EB020C002A45
:101B80006ED0624613F801CD02F801CD9942F9D129
:101B900070470F2A0FD8034602F1FF3C002A5FD09E
:101BA0000CF1010C013B8C4411F8012B03F8012FBF
:101BB0006145F9D1704740EA01039B0751D1A2F179
:101BC000100370B501F1200C23F00F0501F1100E88
:101BD00000F11004AC441B095EF8105C44F8105C82
:101BE0005EF80C5C44F80C5C5EF8085C44F8085C39
:101BF0005EF8045C44F8045C0EF1100EE64504F156
:101C00001004E9D1013312F00C0F01EB031102F0C3
:101C10000F0400EB031328D0043C24F003064FEA22
:101C2000940C1E441C1F8E465EF8045B44F8045F4F
:101C3000B442F9D10CF1010402F0030203EB840376
:101C400001EB840102F1FF3C4AB10CF1010C013BB4
:101C50008C4411F8012B03F8012F6145F9D170BDB7
:101C6000704702F1FF3C03469AE72246EAE700BFCD
:101C7000844641EA000313F003036DD1403A41D397
:101C800051F8043B40F8043B51F8043B40F8043B56
:101C900051F8043B40F8043B51F8043B40F8043B46
:101CA00051F8043B40F8043B51F8043B40F8043B36
:101CB00051F8043B40F8043B51F8043B40F8043B26
:101CC00051F8043B40F8043B51F8043B40F8043B16
:101CD00051F8043B40F8043B51F8043B40F8043B06
:101CE00051F8043B40F8043B51F8043B40F8043BF6
:101CF00051F8043B40F8043B51F8043B40F8043BE6
:101D0000403ABDD2303211D351F8043B40F8043B85
:101D100051F8043B40F8043B51F8043B40F8043BC5
:101D200051F8043B40F8043B103AEDD20C3205D395
:101D300051F8043B40F8043B043AF9D2043208D08D
:101D4000D2071CBF11F8013B00F8013B01D30B88FF
:101D500003806046704700BF082A13D38B078DD0DD
:101D600010F003038AD0C3F10403D21ADB071CBFAF
:101D700011F8013B00F8013B80D331F8023B20F819
:101D8000023B7BE7043AD9D3013A11F8013B00F852
:101D9000013BF9D20B7803704B7843708B788370DA
:101DA00060467047000000000000000000000000D6
:101DB00040EA01039B0710B501D1032A17D88446D6
:101DC00001F1FF3E07E01EF8011F03F8011B541E3E
:101DD00029B19C4622466346002AF4D110BD9444A2
:101DE000002CFBD003F8011B6345FBD110BD8E46D0
:101DF0008446DEF80040A4F1013323EA040313F023
:101E0000803F71460EF1040EDAD1043A032A4CF8F1
:101E1000044BEED87146D3E700000000000000003C
:101E2000032A30B415D941EA0004A40784460B46BE
:101E300004D0541E0FE0043A032A08D9194660461C
:101E400053F8044B5CF8045BA542F4D0F1E760461C
:101E50001946541E7AB1431E0139021901E09A4213
:101E600009D013F8010F11F801CF6045F7D0A0EBAE
:101E70000C0030BC7047002030BC704700000000F0
:101E8000704700BF000000000000000000000000DC
:101E9000704700BF000000000000000000000000CC
:101EA000FEE700BF0000000000000000000000008E
:101EB0000B4A11E050F8041B43F8041B9168994247
:101EC000F8D802E0002143F8041BD1689942F9D800
:101ED0001032044B9A4202D210685368EEE7704702
:101EE000A84A0208284B0208000000000000000079
:101EF000FEE700BF0000000000000000000000003E
:101F00000D4B00229A60D96821F4E0610904090CA4
:101F10000A4A0A43DA60D3F8FC2042F08072C3F820
:101F2000FC2007490A6842F001020A601022DA77B1
:101F3000202283F82220704700ED00E00003FA051C
:101F4000001000E0000000000000000000000000A1
:101F5000FEE700BF000000000000000000000000DD
:101F600038B51D4BDC694FF08043586A0CE0002304
:101F700083F311882069A847202383F31188164B27
:101F8000DC694FF08043586AA368134A916A421A89
:101F9000934211D8104A0B449362216802F11C034A
:101FA0004B602168D161E5680021E160D2699A4205
:101FB000DDD100F03DFCDAE7074A52F81C4F9442AD
:101FC00006D00B441B1A012B03D9184400F038FC2F
:101FD00038BD0223F9E700BF801600200000000092
:101FE00010B500F0DDF800F04BF80B4C80220B49E7
:101FF000204600F015FA44F8180C094BC361012380
:1020000080F82030FFF77CFF002383F3118862B64D
:10201000044800F045FA10BDB01600200C65020817
:1020200000020020F464020800000000000000002C
:1020300072B6014BD862FEE7801600200000000057
:1020400008B5FFF78DFF08BD00000000000000008C
:10205000401A521A90422CBF00200120704700BF46
:1020600038B5064B5D684419044B5868224629462A
:10207000FFF7EEFF0028F7D138BD00BF001000E0E9
:10208000054B03F11C02DA611A624FF0FF325A620B
:1020900000229A62704700BF8016002000000000F6
:1020A00038B505460361C2604FF08043586A012984
:1020B0000ED91A4B53F81C2F9A420BD00844174BD9
:1020C0009C6A041B9368A34212D8144BDB6914E08A
:1020D0000221EEE7114B9862DD611D6203F11C02E3
:1020E0002A606A60A960986A084400F099FB14E0CD
:1020F00000F0A6FBE9E7A41A1B689A68A242FAD38B
:102100002B605A686A6015605D60AC609A68121B4B
:102110009A60024B4FF0FF325A6238BD80160020A1
:1021200008B51D4BDB6983420FD04268036813601A
:1021300042685A600023C3600368184A934203D080
:102140009A6881680A449A6008BD0168124A134679
:1021500043F81C1F4B600021C160D2699A4215D020
:10216000936881680B4493604FF08043586A0A4A31
:10217000936AC11AD26992688A42E5D91B1A13443C
:10218000012B06D9184400F05BFBDDE700F050FBA3
:10219000DAE70223F6E700BF801600209C16002035
:1021A000034B1B605B6000229A601B615B617047A0
:1021B0008016002000000000000000000000000069
:1021C000002380F82030064B1B6899688268914292
:1021D000FAD203605A68426010605860704700BFCE
:1021E0008016002000000000000000000000000039
:1021F00008B5202383F3118890F82030032B05D0F5
:10220000042B0FD02BB983F311880AE0436A002214
:102210001A604FF0FF334362FFF7D2FF002383F3CE
:10222000118808BD42680368136042685A60F0E78D
:10223000002380F82030064B1B6899688268914221
:10224000FAD803605A68426010605860704700BF57
:1022500080160020000000000000000000000000C8
:1022600010B50E4B9C6984F820001A68116819603B
:102270004B609A61012382F82030EFF30983643BBD
:10228000E269934205D32146044B9869FEF720F892
:1022900010BD0348FFF7CCFEF5E700BF8016002015
:1022A000304B0208000000000000000000000000A9
:1022B00010B586B00446B1F1FF3F12D00A4B9B69BE
:1022C0000A4A01A8FFF7ECFE2046FFF7C9FF049B6E
:1022D00013B101A8FFF724FF034B9B69586A06B0AE
:1022E00010BDFFF7BDFFF7E780160020F1210008C1
:1022F00038B50446104B98696162A26883689A42B7
:1023000003D82046FFF75CFF38BDFFF759FF0546AD
:10231000094B9C61012384F82030EFF30983643B6F
:10232000C269934204D329462046FDF7D1FFEBE76B
:102330000248FFF77DFEF6E780160020304B0208CA
:10234000044B1A6890689B699B68984294BF002070
:1023500001207047801600200000000000000000EF
:1023600010B50E4B98691A68116819604B609A6134
:10237000012382F82030FFF75BFF0446EFF3098367
:10238000643BC269934205D32146044B9869FDF72B
:102390009FFF10BD0248FFF74BFEF5E780160020B7
:1023A000304B0208000000000000000000000000A8
:1023B00008B5054B1A6892689B699B689A4200D8D9
:1023C00008BDFFF7CDFFFBE78016002000000000EE
:1023D00010B50E4B98691A68116819604B609A61C4
:1023E000012382F82030FFF723FF0446EFF309832F
:1023F000643BC269934205D32146044B9869FDF7BB
:1024000067FF10BD0248FFF713FEF5E780160020B6
:10241000304B020800000000000000000000000037
:102420008260022280F82020002280F821200122F0
:1024300080F822208161054A026151694161086189
:10244000506100F128028262704700BF80160020B0
:1024500001E000F8012B8842FBD370470000000028
:1024600008B58368426843F8142CA3F1940243F83A
:10247000242C016943F8541C416943F8501C054958
:1024800043F8341CC2680168A3F13000FFF7C8FFAD
:1024900008BD00BFE90200080000000000000000C5
:1024A00010B50446552281684068FFF7D1FF20230C
:1024B00083F311882046FFF7D3FF04460021FFF77E
:1024C00017FF002383F31188204610BD0000000091
:1024D000F8B505460C4616461F4655224118FFF72B
:1024E000B7FF202383F31188303C2819C561A0F180
:1024F0006401C16040F8247C069B40F8203C084BF6
:1025000040F8043C32460749FFF78AFF04460021A1
:10251000FFF7EEFE002383F311882046F8BD00BFCD
:10252000E9020008404B0208000000000000000023
:10253000202383F3118890F82230013B80F8223069
:10254000036A03F0FF130F2B03D0002383F31188DA
:10255000704742690369136142695A61002383F33A
:10256000118870470000000000000000000000001B
:1025700010B50C4B9C69606203E00368A362FFF72F
:102580001FFE234653F8280F9842F6D194F82230C4
:1025900023B962692369136162695A610F20FFF7E9
:1025A0005FFE10BD8016002000000000000000004B
:1025B00008B5202383F31188FFF7DAFF08BD00BFB9
:1025C00038B50446202383F3118890F820300F2B70
:1025D00008D1656A002383F311882046FFF7A8FF1E
:1025E000284638BD044B9B69826A1A6083620920C1
:1025F000FFF736FEEDE700BF801600200000000068
:1026000008B50146202383F311880820FFF750FE08
:10261000002383F3118808BD0000000000000000C3
:1026200010B5054CA369036058620320FFF718FE3C
:10263000A369586A10BD00BF80160020000000008A
:1026400008B50346006820B100221A604162FFF716
:10265000B7FD08BD00000000000000000000000001
:1026600008B50346006818B100221A60FFF740FE63
:1026700008BD00BF000000000000000000000000D6
:1026800059B108B5064B9B69186042685A601360DF
:1026900043600420FFF70CFE08BD4FF0FF30704789
:1026A0008016002000000000000000000000000074
:1026B00008B503460068834205D002681A6053607B
:1026C0004162FFF77DFD08BD000000000000000032
:1026D00038B504460D4605E0036823605C6045623A
:1026E000FFF76EFD20688442F6D138BD000000007F
:1026F000202383F31188034B1869002383F3118887
:10270000704700BF8016002000000000000000009D
:10271000202383F311880069044B984203D00023DF
:1027200083F3118870470020F9E700BF801600206E
:1027300080B400AF084A536B23F001035363EFF3F7
:102740000983683383F30988002383F31188BD4626
:102750005DF8047B704700BF00EF00E00000000060
:1027600098B500AF202383F31188124B5B6813F4F4
:10277000006F03D1002383F3118898BDF1EE103A66
:10278000EFF30984A4F168034FF0807244F84C2CF5
:10279000094AD26B44F8082C83F30988FFF7D0FD6F
:1027A00018B1064B44F8503CE7E7054B44F8503C61
:1027B000E3E700BF00ED00E000EF00E0F9020008F1
:1027C000FC02000800000000000000000000000003
:1027D00008B501F0A5FB0C4802F0DAFA00F018FC8D
:1027E00000F08EFC00F0ACFC00F0F2FC00F080FD8C
:1027F00001F05EF900F0B4FE01F042FB03F000FAD4
:1028000000F006F808BD00BF98660208000000004E
:1028100008B501F0ADFD08BD00000000000000009B
:102820004FF08043586300221A610222DA60704739
:102830004FF080430022DA60704700BF00000000C4
:102840004FF0804358637047000000000000000014
:1028500030B400604060002484600161C1600432D3
:1028600003FB021545618261C361016244628462B7
:10287000029BC362039B036330BC704700000000EF
:1028800008B500228260016A0161C1604262826211
:102890006FF00101FFF71CFF08BD00BF0000000042
:1028A000C3680269934201D0181D70478268002AEC
:1028B000FAD00020704700BF0000000000000000B8
:1028C00008B5C3681960836801338360C36882698F
:1028D0001344C3604269934201D3036AC360002179
:1028E000FFF7E6FE08BD00BF00000000000000008A
:1028F00038B504460D46A36833B929462046FFF78C
:10290000BFFE0028F7DA06E02269131D6362126831
:102910001344A362002038BD000000000000000046
:1029200008B58368013B83600369826913440361CE
:102930004269934201D3036A036100234362C36A7D
:1029400003B1984708BD00BF000000000000000070
:1029500038B50446202383F31188436A5BB1636A68
:1029600013F8015B6362A26A93420DD2002383F3E2
:102970001188284638BDFFF7BBFF05460028EED07A
:10298000002383F31188F4E72046FFF7C9FFEDE742
:102990002DE9F04704460E4617469846202383F358
:1029A00011884FF080435B6A08EB0309002545E07E
:1029B00008F1FF3313F1030F10D84FF08043596A29
:1029C000A9EB010188450ED32046FFF791FFC0B364
:1029D000002383F311882846BDE8F087414620464E
:1029E000FFF786FFF3E7002383F31188F3E7DCF8B2
:1029F00000A0DCF80400DCF80820DCF80C30CEF88D
:102A000000A0CEF80400CEF80820CEF80C300CF16F
:102A1000100C0EF1100E8C45E9D14036636A40333C
:102A200063624035626AA36A9A4223D2002383F329
:102A30001188BD42CFD2202383F31188636A002B13
:102A4000B6D0A36A616A5B1AA7EB050A9A4500D360
:102A50009A46BAF1400F03D98C46B6464031C6E7D4
:102A600052463046FFF704F95644636A53446362A2
:102A70005544D7E72046FFF753FFD7E70000000093
:102A800010B40060406083600161C160043203FBE8
:102A9000021444618261C361016200234362836264
:102AA000019BC362029B03635DF8044B704700BF48
:102AB00008B5C2698260026A0261C2600022426295
:102AC00082626FF00101FFF703FE08BD0000000005
:102AD000C26803699A4204D01B680B600069043025
:102AE00070478268002AF7D000207047000000007D
:102AF00008B5836801338360036982691344036105
:102B00004269934201D3036A03610021FFF7D0FDBC
:102B100008BD00BF00000000000000000000000031
:102B200038B504460D46A36833B929462046FFF759
:102B3000A7FD0028F7DA06E0E3681A1D6262A269C1
:102B40001344A362002038BD000000000000000014
:102B500008B5C36819608368013B8360C3688269F4
:102B60001344C3604269934201D3036AC3600023E4
:102B70004362C36A03B1984708BD00BF000000006C
:102B800038B504460D46202383F31188436A5BB1B0
:102B9000636A1D70636A01336362A26A93420CD256
:102BA000002080F3118838BD1146FFF7B9FF0028D7
:102BB000EED0002383F31188F5E7A169043920469C
:102BC000FFF7C6FFECE700BF0000000000000000B8
:102BD0002DE9F04704460E4617469846202383F316
:102BE00011884FF080435B6A08EB030900253FE042
:102BF00008F1FF3313F1030F10D84FF08043596AE7
:102C0000A9EB010188450ED32046FFF789FF90B359
:102C1000002383F311882846BDE8F087414620460B
:102C2000FFF77EFFF3E7002383F31188F3E7D3F880
:102C300000E0D3F804C09968DA68C0F800E0C0F892
:102C400004C08160C260103310305345EFD140366C
:102C5000636A403363624035626AA36A9A4223D250
:102C6000002383F31188BD42D5D2202383F311883A
:102C7000636A002BBCD0A36A606A1B1AA7EB050A23
:102C80009A4500D39A46BAF1400F03D9334606F16C
:102C9000400ACCE752463146FEF7EAFF5644636AE3
:102CA000534463625544D7E7A16904392046FFF7CE
:102CB0004FFFD5E70000000000000000000000000A
:102CC000C3680269934201D0002070478268BAB19C
:102CD000426ABAB1D21A043A01D1002070471A6090
:102CE0008368013B8360C36882691344C36042699F
:102CF000934201D3036AC3600023436201207047FB
:102D00000020704700207047000000000000000015
:102D100010B40060406000248460C1608161416142
:102D200011440161C361019B03625DF8044B70476C
:102D300008B5C26882614261002282606FF00101C1
:102D4000FFF7C6FC08BD00BF000000000000000047
:102D500008B543698269934210D08268013282606B
:102D60005A1C42611970426903699A4201D3C368CF
:102D700043610021FFF79CFC002008BD8268002A07
:102D8000EBD04FF0FF30F8E700000000000000003B
:102D900038B505460C46202383F31188AB684BB940
:102DA00021462846FFF76CFC0028F7DA002383F35E
:102DB000118813E0AB68013BAB60AA69531CAB619F
:102DC00014782A69934201D3EB68AB61EB690BB1CC
:102DD00028469847002383F31188204638BD00BF5A
:102DE0002DE9F04704460D4616461F46D0F81C90C4
:102DF000202383F311884FF080435B6A07EB030ABB
:102E00004FF000082CE07B1E13F1030F10D84FF099
:102E10008043596AAAEB01018F420ED32046FFF787
:102E20002FFCE8B1002383F311884046BDE8F0870A
:102E300039462046FFF724FCF3E7002383F311888B
:102E4000F3E7B9F1000F01D02046C847002383F310
:102E5000118808F10108013EE7D0202383F311888F
:102E6000A368002BCFD0A1680139A160A3695A1CC7
:102E7000A2611B7805F8013BA26923699A42E0D35D
:102E8000E368A361DDE700BF000000000000000070
:102E9000006040608260C1608161416111440161F4
:102EA000C361009B03627047000000000000000047
:102EB00008B5C168816141610269521A82606FF090
:102EC0000101FFF705FC08BD000000000000000044
:102ED00070B504460E461546202383F31188A36877
:102EE0004BB929462046FFF7CBFB0028F7DA002331
:102EF00083F3118813E0A368013BA36063695A1C44
:102F000062611E70626923699A4201D3E36863615A
:102F1000E3690BB120469847002080F3118870BD0B
:102F2000426983699A4210D010B58268013282608A
:102F30005A1C82611C7803699A4201D3C368836179
:102F40000021FFF7B5FB204610BD8268002AEBD0B8
:102F50004FF0FF30704700BF00000000000000008D
:102F60002DE9F04704460D4616461F46D0F81C9042
:102F7000202383F311884FF080435B6A07EB030A39
:102F80004FF000082CE07B1E13F1030F10D84FF018
:102F90008043596AAAEB01018F420ED32046FFF706
:102FA0006FFBE8B1002383F311884046BDE8F0874A
:102FB00039462046FFF764FBF3E7002383F31188CB
:102FC000F3E7B9F1000F01D02046C847002383F38F
:102FD000118808F10108013EE7D0202383F311880E
:102FE000A368002BCFD0A1680139A16063695A1C86
:102FF000626115F8012B1A70626923699A42E0D365
:10300000E3686361DDE700BF00000000000000002E
:1030100008B501F015FA08BD00000000000000002E
:1030200001230370002343608360C3600361436135
:10303000704700BF0000000000000000000000001A
:1030400010B50446202383F31188416001F040FA53
:1030500002232370002383F3118810BD00000000B9
:1030600008B58260C36001610323037001F088FA30
:1030700008BD00BF000000000000000000000000CC
:1030800008B54FF0200C8CF31188FFF7E9FF0023FF
:1030900083F3118808BD00BF00000000000000009D
:1030A000202383F311880378022B03D1002383F3B9
:1030B0001188704710B5044601F0B2FA002323616D
:1030C0002046022300F8143B6FF00101FFF7C8FA15
:1030D000002383F3118810BD0000000000000000F1
:1030E00010B504464FF0200C8CF31188FFF7B8FFA1
:1030F00004F11400FFF794FA002383F3118810BD44
:1031000008B501F01DFB08BD000000000000000034
:103110000123037000234360704700BF00000000DC
:1031200010B50446202383F31188416001F0E0FBD1
:1031300002232370002383F3118810BD00000000D8
:1031400008B501F0C5FE08BD000000000000000049
:103150000123037000234360704700BF000000009C
:1031600010B50446202383F31188416001F0C8FEA6
:1031700002232370002383F3118810BD0000000098
:1031800008B50323037001F013FF08BD0000000021
:1031900008B5202383F31188FFF7F2FF002383F3A0
:1031A000118808BD000000000000000000000000C1
:1031B00010B504460423037001F022FF022323709C
:1031C00010BD00BF00000000000000000000000073
:1031D00008B501F065FF08BD000000000000000018
:1031E0000123037000234360C3600374704700BF72
:1031F00010B50446202383F3118841604B68836037
:1032000001F05EFF0023E3600222227083F3118845
:1032100010BD00BF00000000000000000000000022
:1032200038B5202484F3118801248C40C5682C43D0
:10323000C46001F0DDFF002383F3118838BD00BFB7
:1032400008B5202282F31188C2684FF0010C0CFAF5
:1032500001FC22EA0C02C26001F0DAFF002383F3D2
:10326000118808BD00000000000000000000000000
:1032700008B50C30FFF7B4FD08BD00BF000000002A
:1032800008B54FF0FF330C30FFF7AAFD08BD00BFB3
:1032900008B53030FFF764FE08BD00BF0000000035
:1032A00008B54FF0FF333030FFF75AFE08BD00BFBE
:1032B00008B50C30FFF76CFD08BD00BF0000000032
:1032C00008B54FF0FF310C30FFF762FD08BD00BFBD
:1032D00008B53030FFF7FCFD08BD00BF000000005E
:1032E00008B54FF0FF323030FFF7F2FD08BD00BFE8
:1032F00008B502F0B5F808BD0000000000000000AD
:1033000030B583B004460B4615460C4A02600022D5
:103310004260012202720090402200F154010C3000
:10332000FFF7F6FC00942B46402204F1940104F1CF
:103330003000FFF7ADFD03B030BD00BF24650208CB
:1033400010B50446202383F3118802F0A9F8022364
:103350002372002383F3118810BD00BF000000001A
:1033600010B50446202383F3118802F0B9F8012335
:10337000237204F13000FFF79BFD04F10C00FFF70E
:10338000D7FCFFF715F8002383F3118810BD00BFA9
:1033900010B5044643691BB9436843F00403436016
:1033A00004F10C00FFF7D4FC002800DB10BD6368BB
:1033B00043F080036360F9E70000000000000000B4
:1033C00010B582B0046BD4F884321A6811780429DD
:1033D00008D1217A022905D11289197901238B405C
:1033E000134201D002B010BD01A904F14000FFF763
:1033F0006FFB02460028F5D0D4F88402019B0179C6
:10340000006800F0CDFBEDE70000000000000000C8
:1034100010B5046BD4F884321A681178042908D1E5
:10342000217A022905D15289597901238B4013420F
:1034300000D010BD04F10C00FFF732FA024600285C
:10344000F7D0D4F8840280234179006800F090FB23
:10345000EFE700BF000000000000000000000000D7
:1034600010B5D0F88442246894F800C0BCF1040F71
:1034700001D0002010BD0C30FFF78AFAFAE700BF38
:1034800008B5D0F884321B681B78042B01D00020CB
:1034900008BD4FF0FF330C30FFF77AFAF8E700BFB2
:1034A00010B5D0F88442246894F800C0BCF1040F31
:1034B00001D0002010BD4030FFF78AFBFAE700BFC3
:1034C00008B5D0F884321B681B78042B01D000208B
:1034D00008BD4FF0FF334030FFF77AFBF8E700BF3D
:1034E00008B5D0F884321B681B78042B03D10C304C
:1034F000FFF72EFA08BD6FF00100FBE700000000A7
:1035000008B5D0F884321B681B78042B05D14FF026
:10351000FF310C30FFF71CFA08BD6FF00100FBE72C
:1035200008B5D0F884321B681B78042B03D14030D7
:10353000FFF726FB08BD6FF00100FBE7000000006D
:1035400008B5D0F884321B681B78042B05D14FF0E6
:10355000FF324030FFF714FB08BD6FF00100FBE7BE
:10356000704700BF000000000000000000000000E5
:1035700010B582B004460E4B036000234360012364
:10358000037201900B4B00930223802200F174011F
:103590000C30FFF75DF90194074B00930223802262
:1035A00004F5BE7104F14000FFF76AFA02B010BDE5
:1035B0004465020811340008C1330008000000000F
:1035C0000A68202383F311880B79093302EB830304
:1035D00058604B79113342F823008B791BB10933C2
:1035E00002EB83025060C0F88412022303720023AE
:1035F00083F31188704700BF000000000000000046
:1036000010B50446436843F0020343600C30FFF7F3
:1036100037F904F14000FFF74BFA10BD000000003D
:1036200038B5044600F10C052846FFF729F904F1E6
:103630004000FFF73DFA636843F0010363602846EA
:10364000FFF72EF90246D4F884428023617920687E
:1036500000F08EFA38BD00BF00000000000000003E
:1036600090F8743003F06003202B01D000207047E5
:1036700090F87530212B05D0222B13D0202B09D0A8
:10368000002070470A4B83660723C3660023036745
:1036900001207047064B83660723C3660023036738
:1036A0000120704700238366C366036701207047CB
:1036B000D006002000000000000000000000000014
:1036C000D0F884321A681178042921D130B583B03A
:1036D0000446017A022905D11289197901238B4008
:1036E000134201D003B030BD00F140052846FFF77A
:1036F000E7FA0028F6D001A92846FFF7E9F90246C3
:10370000D4F88442019B2179206800F049FAE9E766
:10371000704700BF00000000000000000000000033
:1037200070B582B001F1090300EB83035E68F6B166
:1037300004460D46202383F31188736843F0080381
:1037400073608B1C00EB83035B685B691B6883B948
:1037500001A906F14000FFF7BBF9024670B1019BD9
:103760002946204600F01CFA002383F3118802B09A
:1037700070BD06F14000FFF7BBF9E9E7AB1C04EBB5
:1037800083035A6853691B68002BEDD0128A013AF3
:103790001342E9D1002304F174022946204600F0C7
:1037A000FFF9E1E700000000000000000000000059
:1037B00038B5113150F8214024B3202383F3118808
:1037C000636843F00403636004F10C05D4F88422B9
:1037D00013685279023203EB82035B689B69596874
:1037E0002846FFF76DF82846FFF75AF8024630B131
:1037F000D4F8840280234179006800F0B9F90023ED
:1038000083F3118838BD00BF0000000000000000F5
:10381000704700BF00000000000000000000000032
:103820000378407843EA0020704700BF00000000A2
:10383000F8B5044690F8743003F07F0390F87520D3
:1038400043EA022340F20232934200F0EF8023D891
:10385000B3F5807F6AD010D8012B5DD0022B00F029
:10386000958043B900F17C0383660223C36600237D
:1038700003670120F8BD0020FCE7B3F5817F00F06D
:10388000BF80B3F5407F05D190F87630012B5FD033
:103890000020EFE70020EDE7B3F5006F6BD020D8F4
:1038A000B3F5A06F60D0B3F5C06F18D143685D6801
:1038B00090F8776090F876707830FFF7B1FF0346A4
:1038C0003A4631462046A847002800F0C5804268A5
:1038D000A2660368E366002323670120CAE700208D
:1038E000C8E7B3F5106F13D190F8763080F87F30C9
:1038F000002B48D10323037063681B6813B10221B6
:10390000204698470023A366E36623670120B1E7BA
:1039100040F60242934207D1524BA3660223E3666C
:10392000002323670120A5E70020A3E790F8763065
:10393000012B01D000209DE7B0F87C3023F002037A
:10394000A0F87C3000238366C3660367012091E7FB
:10395000B0F87C3043F00203A0F87C30002383668B
:10396000C3660367012085E700238366C3663E4B79
:10397000036701207EE700F17F0383660120E06694
:103980000023236776E704230370B5E790F87810E7
:1039900090F97830002B09DB01F00F0101F0E8FF0E
:1039A00001281DD0022823D0002063E701F00F0179
:1039B00001F0F6FF012803D0022809D0002059E7C2
:1039C0002A4BA3660223E36600232367012051E705
:1039D000274BA3660223E36600232367012049E700
:1039E000224BA3660223E36600232367012041E7FD
:1039F0001F4BA3660223E36600232367012039E7F8
:103A000090F8763053BB90F8783013F00F0104D063
:103A100013F0800F07D102F073F80023A366E3666A
:103A20002367012026E702F08BF8F6E790F876305E
:103A3000B3B990F8783013F00F0104D013F0800F71
:103A400007D102F02DF80023A366E3662367012067
:103A500010E702F03DF8F6E700200BE7002009E749
:103A6000002007E76C650208813A000864650208D7
:103A7000686502080000000000000000000000006F
:103A800010B5044690F8763080F87E3001F0D0FE14
:103A900063681B6813B101212046984703232370F4
:103AA00010BD00BF0000000000000000000000008A
:103AB00008B501F08DFE08BD000000000000000008
:103AC00001230370002343600AE003F10A0200EBC4
:103AD00082020021516003F1120240F822100133EA
:103AE000062BF2D9002303814381704700000000B8
:103AF00010B50446202383F311884160002305E0BC
:103B00009A1C04EB8202002151600133072BF7D984
:103B1000204601F065FE02232370002383F3118801
:103B200010BD00BF00000000000000000000000009
:103B300008B58B1C00EB83035A6053694BB14FF0FF
:103B4000000CC3F800C0C3F804C0C3F808C0C3F831
:103B50000CC0936923B100221A605A609A60DA603F
:103B600001F076FE08BD00BF00000000000000006C
:103B700038B5458901248C40A4B22C43448101F11D
:103B8000020E00EB8E0CDCF80440A469A2602360F6
:103B90000023636001F034FF38BD00BF0000000067
:103BA00038B5058901248C40A4B22C43048101F16D
:103BB000020E00EB8E0CDCF804406469A260236006
:103BC0000023636001F044FF38BD00BF0000000027
:103BD00010B50446022303700023A0F87C3080F85F
:103BE0007E3080F87F300381438105E09A1C04EB2E
:103BF0008202002151600133072BF7D9002384F89A
:103C00006430204601F094FE63681B6813B1002104
:103C10002046984710BD00BF0000000000000000D3
:103C200008B50523037043681B680BB1032198474F
:103C300008BD00BF00000000000000000000000000
:103C400008B50423037043681B680BB1042198472F
:103C500008BD00BF000000000000000000000000E0
:103C600010B50446002380F8643000F1740201F0BE
:103C7000A7FE63689B6813B12046984740B994F843
:103C8000743013F0600F22D12046FFF7D1FDF0B160
:103C900004F17A00FFF7C4FDE36E834200D9E066C9
:103CA00094F97430002B24DBE36E002B43D0042303
:103CB00084F86430202383F31188E36EA26E002120
:103CC0002046FFF755FF002383F3118810E0002101
:103CD000204601F0FDFE0021204601F0E1FE636870
:103CE0001B6813B1052120469847062384F86430E9
:103CF00010BDE36E7BB1012384F86430202383F38D
:103D00001188E36EA26E00212046FFF749FF0023D1
:103D100083F31188ECE7032384F86430202383F3D2
:103D2000118800231A4619462046FFF721FF002379
:103D300083F31188DCE7052384F86430202383F3C0
:103D4000118800231A4619462046FFF729FF002351
:103D500083F31188CCE700BF0000000000000000E2
:103D600010B5044690F86430062B21D8DFE803F044
:103D700038041138383138007A30FFF751FDE36EDE
:103D8000834206D2E268128AB3FBF2F102FB1133DE
:103D90007BB1032384F86430202383F3118800234C
:103DA0001A4619462046FFF7E3FE002383F31188E5
:103DB00010BD202383F3118800231A46194620469C
:103DC000FFF7EEFE002383F31188022384F86430AA
:103DD000EEE7036F03B19847002384F86430E7E708
:103DE000002101F075FE0021204601F059FE6368B4
:103DF0001B6813B1052120469847062384F86430D8
:103E0000D6E700BF00000000000000000000000036
:103E100010B5044690F86430062B13D8DFE803F0A1
:103E20001F1F1F13041F1F00052380F86430202369
:103E300083F3118800231A461946FFF7B1FE0023C9
:103E400083F3118810BDC3689B695B68002BF9D1AF
:103E5000036F03B19847002384F86430F2E7002130
:103E600001F036FE0021204601F01AFE63681B684F
:103E700013B1052120469847062384F86430E1E712
:103E800008B501F07DFE08BD000000000000000044
:103E90000901C9B2074A131883F8001300F01F0183
:103EA000400901238B4000F1600142F8213042F8C3
:103EB0002030704700E100E000000000000000003A
:103EC000154A136843F480731360144B1B6A03F4A0
:103ED0004073B3F5807F05D0104B4FF480321A62E7
:103EE00000221A620D4A136A43F0190313620B4B46
:103EF0001B6A13F0020FFAD0084B1B6A13F4004F31
:103F000008D1064B1A6A42F480721A621A6A42F4A5
:103F100000421A62704700BF00700040001002406B
:103F200010B50F4CA36A4FF0FF32A2620023A362C8
:103F3000216922612361E168E260E360E36943F0A3
:103F40008053E361FFF7BCFF00F082F9A36943F0FF
:103F50000103A361034A136843F02003136010BDFB
:103F600000100240000001400000000000000000BE
:103F7000244A136843F001031360224B1B6813F0BB
:103F8000020FFAD01F4B5A6822F003025A605A6897
:103F90005A601C4B5B6813F00C0FFAD1194B1A686E
:103FA00002F0F9021A6000225A605A6A42F00102D5
:103FB0005A62144B5B6A13F0020FFAD0114B124A8B
:103FC0005A6042F21012DA6230221A631A6842F022
:103FD00080721A600B4B1B6813F0007FFAD00B4BFA
:103FE00011221A60074A536843F002035360054BDD
:103FF0005B6803F00C03082BF9D1024B1A6B1A63B0
:10400000704700BF00100240000468070020024013
:1040100008B5074B196811F00F0106D05960054B20
:104020001B6813B1034A50689847FEF799FB08BD17
:1040300000000240E0160020000000000000000028
:1040400008B5094B1B68C3F3031113F0F00F08D038
:104050000B01054A5360054B9B6813B1034AD068B6
:104060009847FEF77DFB08BD00000240E0160020E7
:1040700008B5094B1B68C3F3032113F4706F08D014
:104080000B02054A5360054B1B6913B1034A506983
:104090009847FEF765FB08BD00000240E0160020CF
:1040A00008B5094B1B68C3F3033113F4704F08D0F4
:1040B0000B03054A5360054B9B6913B1034AD06952
:1040C0009847FEF74DFB08BD00000240E0160020B7
:1040D00008B5094B1B68C3F3034113F4702F08D0D4
:1040E0000B04054A5360054B1B6A13B1034A506A1F
:1040F0009847FEF735FB08BD00000240E01600209F
:1041000008B5094B1B68C3F3035113F4700F08D0B3
:104110000B05054A5360054B9B6A13B1034AD06AED
:104120009847FEF71DFB08BD00000240E016002086
:1041300008B5094B1B68C3F3036113F0706F08D017
:104140000B06054A5360054B1B6B13B1034A506BBA
:104150009847FEF705FB08BD00000240E01600206E
:1041600008B5074B196811F00F0106D05960054BCF
:104170009B6B13B1034AD06B9847FEF7F1FA08BD69
:1041800000040240E01600200000000000000000D3
:1041900008B5094B1B68C3F3031113F0F00F08D0E7
:1041A0000B01054A5360054B1B6C13B1034A506C5D
:1041B0009847FEF7D5FA08BD00040240E01600203B
:1041C00008B5094B1B68C3F3032113F4706F08D0C3
:1041D0000B02054A5360054B9B6C13B1034AD06C2C
:1041E0009847FEF7BDFA08BD00040240E016002023
:1041F00008B5094B1B68C3F3033113F4704F08D0A3
:104200000B03054A5360054B1B6D13B1034A506DF8
:104210009847FEF7A5FA08BD00040240E01600200A
:1042200008B5094B1B68C3F3034113F4702F08D082
:104230000B04054A5360054B9B6D13B1034AD06DC7
:104240009847FEF78DFA08BD00040240E0160020F2
:1042500000230C4A13600BE003EB830291000A4A2F
:104260000A44516800220A60084941F833200133AA
:104270000B2BF1DD4FF0FF33054A536002F58062EE
:1042800053607047DC16002070650208E0160020BD
:1042900000000240000000000000000000000000DC
:1042A00038B5044690F811C0012000FA0CF01E4DFC
:1042B0002D68284236D11D4840F83C2094F811C0A2
:1042C00000EBCC00436015F07F0F04D11848436920
:1042D00043F00103436115F4786F04D11448436936
:1042E00043F0020343616068036823F00F03036037
:1042F00094F810C020680F2303FA0CF3436063683E
:1043000000201860A3681D4203D112B1A07CFFF702
:10431000BFFD637C01229A4003490B6813430B6085
:10432000002038BD0120FCE7DC160020E01600204C
:10433000001002400000000000000000000000002B
:1043400010B54FF080431B6913F0020F02D1FEF746
:1043500007FA10BD00244FF080431C61202383F333
:104360001188FDF76DFE84F31188F0E7000000006E
:1043700008B50F4AD36943F00103D3610D4A93682E
:1043800043F0010393604FF0804341F2BF229A62F1
:104390004FF0FF32DA6200229A615A63DA605A60A3
:1043A00001225A611A6002211C20FFF771FD08BD2D
:1043B00000100240002004E00000000000000000A7
:1043C0008269936843F00103936083691B6813F06B
:1043D000010FFAD0704700BF00000000000000008D
:1043E0008269936843F00043936083699B68002B64
:1043F000FBDB704700000000000000000000000030
:1044000083699A6812F0040F08D09A6842F010028B
:104410009A6083699B6813F0100FFAD1704700BF50
:1044200008B5836900229A6083694FF080529A60D0
:104430004FF4F070FDF714FE08BD00BF000000004F
:104440002DE9F0410027194B1F60194C2046FEF75B
:10445000E7FD184EE6614FF0A043A361164D2562BB
:1044600042F28A58C4F82480144C2046FEF7D8FD46
:10447000E661134BA3618C352562C4F824800221C8
:104480001220FFF705FD0F4B5A6942F080525A6126
:104490009A6A42F080529A629F624FF48032B26010
:1044A0005A6922F080525A61BDE8F081401700201D
:1044B0006C170020000300507065020844170020AC
:1044C0000001005000100240000000000000000049
:1044D00010B5044643681BB12378012B03D010BDEF
:1044E0001F4B4360F8E71F4B9C4216D01E4B9C426B
:1044F00024D0A3694033226A526893606268A3693A
:104500001268C3F8B0202046FFF78AFF2046FFF765
:1045100067FF2046FFF754FFE1E72346134A0521D2
:10452000206AFFF7BDFE124A136843F001031360CF
:10453000104A536943F080535361D7E723460B4A2F
:104540000521206AFFF7ACFE094A136843F0020315
:104550001360084A536943F080535361C9E700BFB1
:10456000606602086C1700204417002041460008CE
:104570004017002000100240000000000000000072
:1045800070B40369416ADA6842F001041D7845B1EC
:1045900041F0200542F00304C268012A3CD941F0F1
:1045A00024018568026A5268D5605A88056A6D6878
:1045B000C66806FB02F26A60026A52681160026A0B
:1045C00051680A6842F001020A608269116811604C
:1045D0008269902151608269196911628269596901
:1045E0005161826999699161DA69598801390A438F
:1045F00081690A638269196A51638269596A9163A0
:1046000082699B6AD3638369DC608269936843F043
:104610000403936070BC70472946C2E700000000A5
:1046200008B5026A51680A6822F00F020A60036A3C
:10463000197C1A680F238B405360FFF7E1FE08BD19
:1046400038B5044611F0080F14D103696BB311F0AB
:10465000020F56D01A787AB35D6835B3C268012A62
:1046600027D952085B8802FB03F3816801EB430101
:10467000A8471AE0FFF7D4FF23699A6842B10522E0
:1046800022709B680021204698472378052B0DD087
:1046900000252561202383F311884FF0FF3104F1B9
:1046A0001400FDF7CDFF85F3118838BD0223237078
:1046B000EEE78168A847F8E7FFF7B2FF23695A6879
:1046C000D2B1042222705B68E268A1682046984754
:1046D0002378042B0BD0202383F31188002104F1CD
:1046E0001400FDF7ADFF002383F31188DDE70223FB
:1046F000237000232361EEE702232370002323614C
:10470000E9E711F0040FD0D05B68002BCDD0C26870
:10471000520881689847C8E70000000000000000C8
:10472000C269936843F480039360704700000000FF
:10473000C269936843F08073936070470000000083
:1047400008B50248FEF7E4FC08BD00BF941700203E
:1047500070B501F01F02012393400F2918D88A0871
:1047600001F0030E4FEA8E0E0F2505FA0EF5446890
:1047700054F83140C4F3031C0CFA0EFC3F4E0232D5
:1047800056F8224024EA050444EA0C0446F8224084
:104790001F2939D813F0FC5F20D1426852F831202C
:1047A00012F0010F1BD0364CA2681A43A260426877
:1047B00052F8312012F0020F17D0314CE2681A4340
:1047C000E260426802EBC1025268A2B12C4A116851
:1047D00019431160516821EA0303536070BD284CEE
:1047E000A26822EA0302A260E1E7254CE26822EA1D
:1047F0000302E260E5E7224A5168194351601168FB
:1048000021EA03031360E9E7032BE7D8426852F873
:10481000312012F0010F1BD0194CA26A1A43A26278
:10482000426852F8312012F0020F17D0144CE26A9D
:104830001A43E262426802EBC1025268A2B1104A16
:10484000116A19431162516A21EA03035362C5E7F1
:104850000B4CA26A22EA0302A262E1E7084CE26A78
:1048600022EA0302E262E5E7054A516A194351620E
:10487000116A21EA03031362B0E700BF00000140A0
:1048800000040140000000000000000000000000E3
:1048900001F01F02012393401F2912D8124A116808
:1048A00021EA03011160516821EA03015160916816
:1048B00021EA03019160D16821EA0301D1605361CB
:1048C0007047094A116A21EA03011162516A21EA1B
:1048D00003015162916A21EA03019162D16A21EADE
:1048E0000301D162536370470004014000000000DF
:1048F00038B505460378012B01D0002407E000F00D
:10490000F7F9FAE721462846FFF7C2FF0134212CC8
:104910000AD86B6853F8343013F0040FF2D02146F4
:104920002846FFF715FFF1E738BD00BF0000000083
:1049300008B5084A5369116801F001010B40536141
:1049400023B1054843685B6800219847FDF708FFDD
:1049500008BD00BF000401409417002000000000C3
:1049600008B5084A5369116801F002010B40536110
:1049700023B105484368DB6801219847FDF7F0FE45
:1049800008BD00BF00040140941700200000000093
:1049900008B5084A5369116801F004010B405361DE
:1049A00023B1054843685B6902219847FDF7D8FEAB
:1049B00008BD00BF00040140941700200000000063
:1049C00008B5084A5369116801F008010B405361AA
:1049D00023B105484368DB6903219847FDF7C0FE12
:1049E00008BD00BF00040140941700200000000033
:1049F00008B5084A5369116801F010010B40536172
:104A000023B1054843685B6A04219847FDF7A8FE77
:104A100008BD00BF00040140941700200000000002
:104A200010B5194B5C691A6802F4787214405C6125
:104A300014F0200F04D015484368DB6A052198471D
:104A400014F0400F04D0114843685B6B062198476F
:104A500014F0800F04D00D484368DB6B07219847A2
:104A600014F4807F04D0094843685B6C08219847A0
:104A700014F4007F04D005484368DB6C0921984793
:104A8000FDF76EFE10BD00BF00040140941700202A
:104A900010B51D4B5C691A6802F47C4214405C61DD
:104AA00014F4806F04D0194843685B6D0A2198475D
:104AB00014F4006F04D015484368DB6D0B21984750
:104AC00014F4805F04D0114843685B6E0C21984752
:104AD00014F4005F04D00D484368DB6E0D21984745
:104AE00014F4804F04D0094843685B6F0E21984747
:104AF00014F4004F04D005484368DB6F0F2198473A
:104B0000FDF72EFE10BD00BF0004014094170020E9
:104B100008B5084A5369116801F480310B405361AC
:104B20002BB105484368D3F8843010219847FDF72E
:104B300017FE08BD0004014094170020000000008B
:104B400008B5084A5369116801F400310B405361FC
:104B50002BB105484368D3F88C3011219847FDF7F5
:104B6000FFFD08BD00040140941700200000000074
:104B700008B5084A5369116801F480210B4053615C
:104B80002BB105484368D3F8943012219847FDF7BC
:104B9000E7FD08BD0004014094170020000000005C
:104BA00008B5084A5369116801F400210B405361AC
:104BB0002BB105484368D3F89C3013219847FDF783
:104BC000CFFD08BD00040140941700200000000044
:104BD00008B5084A5369116801F480110B4053610C
:104BE0002BB105484368D3F8A43014219847FDF74A
:104BF000B7FD08BD0004014094170020000000002C
:104C000010B5144B5C691A6822F05F4222F400026E
:104C1000520D520514405C6114F4001F05D00E487B
:104C20004368D3F8AC301521984714F4800F05D0B1
:104C300009484368D3F8B4301621984714F0005F50
:104C400005D005484368D3F8EC301D219847FDF79F
:104C500087FD10BD000401409417002000000000F3
:104C600010B5154B5C691A6802F0404214405C6153
:104C700014F0804F05D011484368D3F8F4301E215A
:104C80009847002C10DB0C4A536B116A0B4003F061
:104C9000010353632BB109484368D3F80431202141
:104CA0009847FDF75DFD10BD04484368D3F8FC301C
:104CB0001F219847E7E700BF000401409417002038
:104CC00008B5084A536B136803F0020353632BB112
:104CD00005484368D3F80C3121219847FDF740FD82
:104CE00008BD00BF00040140941700200000000030
:104CF00008B506210846FFF7CBF806210720FFF785
:104D0000C7F806210820FFF7C3F806210920FFF79E
:104D1000BFF806210A20FFF7BBF806211720FFF78E
:104D2000B7F806212820FFF7B3F803210120FFF789
:104D3000AFF803212920FFF7ABF806214C20FFF73D
:104D4000A7F806210220FFF7A3F806210320FFF7AA
:104D50009FF806214020FFF79BF806214120FFF72E
:104D600097F806214220FFF793F808BD00000000E5
:104D70004B6843608B688360CB68C3600B69436199
:104D80004B6903628B6943620B680360704700BF25
:104D900010B50446114A536943F4FC0353610146BC
:104DA0004FF09040FFF7E4FF04F11C010C48FFF7BF
:104DB000DFFF04F138010B48FFF7DAFF04F154017B
:104DC0000948FFF7D5FF04F170010848FFF7D0FF4D
:104DD00004F18C010648FFF7CBFF10BD0010024024
:104DE0000004004800080048000C0048001000487B
:104DF0000014004800000000000000000000000057
:104E00002DE9F04702F0030CC2F38005C2F3C104A0
:104E1000C2F3411EC2F3C318002315E0072B47D885
:104E2000026A22EA070242EA09020262026832408A
:104E300042EA0C020260490848D06D00A4004FEA23
:104E40008E0E4FEA8C0C013311F0010FF3D003F0FA
:104E50000702920008FA02F901269E405F004FF017
:104E6000030A0AFA07FA0F279740426822EA060265
:104E70002A43426082686FEA0A0622EA0A02224353
:104E80008260C26822EA0A0242EA0E02C260BCF1F3
:104E9000020FC3D00268164046EA0C060660072BD4
:104EA0000DD8026A22EA070242EA09020262C2E758
:104EB000426A22EA070242EA09024262B6E7426A0D
:104EC00022EA070242EA09024262B4E7BDE8F0873B
:104ED00008B50548054BC360FEF73AF90448054B91
:104EE000C360FEF735F908BDAC170020002C014067
:104EF0009C17002000080040000000000000000097
:104F000010B504460378012B19D0A36862681268B3
:104F1000B3FBF2F39BB2013B9BB2E16800220A6053
:104F20006068E16880684860E1688B62E3681A61E4
:104F30006368DB68E26823F0FF03D36010BD154BA4
:104F4000984214D0144B9C42DFD1144BDA6942F0E2
:104F50000402DA611A6942F004021A6100221A613D
:104F600002211E20FEF794FF0D4BA360CDE70B4BF3
:104F70009A6942F400629A61DA6842F40062DA6087
:104F80000022DA6002211920FEF782FF044BA360A1
:104F9000D8E700BFAC1700209C170020001002408B
:104FA000006CDC02000000000000000000000000B7
:104FB000C3680139D962C36801225A61C2680023FB
:104FC0005362C268136143685B6823B1C268D368E7
:104FD00043F00103D360C36805221A60704700BF25
:104FE000C26800231360C2681361C268D36823F0EB
:104FF000FF03D360704700BF000000000000000006
:10500000C3680139D962C36801225A61C3680D229D
:105010001A60C3681A6912F0010FFAD000221A61EF
:10502000704700BF0000000000000000000000000A
:1050300010B50446C36800221A610378042B04D01B
:1050400063685B682046984710BD02230370FFF732
:10505000C7FFF5E7000000000000000000000000AE
:1050600008B50348FFF7E4FFFDF77AFB08BD00BF72
:10507000AC1700200000000000000000000000004D
:1050800008B50348FFF7D4FFFDF76AFB08BD00BF72
:105090009C1700200000000000000000000000003D
:1050A00010B5044C2046FEF79BF804232374024BF2
:1050B000A36110BDBC1700200004004000000000E8
:1050C00010B504460378012B2FD0826900231360AA
:1050D00082695363826993638269D36382691364CB
:1050E000037C042B04D98269002393658269D3650C
:1050F000A36900225A62636962681268B3FBF2F323
:10510000013BA2699362A368A269013BD362626812
:10511000A369D26B5A606268D36803F00F03012B56
:1051200022D0022B21D0002321E02A4B984209D023
:10513000A26946F668039361A269D361A369264A0E
:105140005A65D8E7254BDA6942F00202DA611A693A
:1051500042F002021A6100221A6103211D20FEF7AB
:1051600097FE1F4B6361E3E7002343F0010351699E
:1051700001F00F01012903D0022903D143F02003DC
:1051800043F01003D16901F00F01012903D0022976
:1051900003D143F4007343F48073526A02F00F02A8
:1051A000012A03D0022A03D143F4005343F480536D
:1051B000A2691362A36901225A61A36900221A61DC
:1051C00063681B6CA26923F0FF03D360A369852287
:1051D0001A6010BDBC170020686801010010024071
:1051E000006CDC0200000000000000000000000075
:1051F000032905D883690C3103EB81035A6070479A
:105200008369123143F82120704700BF000000007D
:1052100003290ED8836901F10C0203EB82030022FB
:105220005A608069C36802228A4023EA0203C3608D
:10523000704783691231002243F82120704700BF74
:1052400038B5054683691C69DA68D2B21440E24376
:105250001A6114F0020F03D043681B6903B1984729
:1052600014F0040F04D06B689B690BB12846984773
:1052700014F0080F04D06B681B6A0BB128469847DE
:1052800014F0100F04D06B689B6A0BB12846984746
:1052900014F0010F04D06B689B680BB12846984747
:1052A00038BD00BF0000000000000000000000004A
:1052B00008B50348FFF7C4FFFDF752FA08BD00BF69
:1052C000BC170020000000000000000000000000EB
:1052D000D0F8D430D0F8D8200868B2FBF0F2DA6009
:1052E0008A6842F040025A60CA6842F001029A603D
:1052F0004A6842F4967242F001021A604FF0FF329F
:105300001A6270470000000000000000000000006A
:105310000023036043608360704700BF000000000B
:1053200011F0080300D0802311F0010F01D043F0E9
:10533000200311F0020F01D043F0400311F0040FDD
:1053400001D043F48073202282F311884268134312
:105350004360002383F31188704700BF0000000002
:10536000024A136843F0800313607047003801401D
:10537000F8B50446D0F8D4703E68FD693D6215F07A
:105380000F0F26D115F4807F09D0202383F31188D5
:10539000636843F400736360002383F3118815F09E
:1053A000200F1AD116F0800F02D015F0800F20D1F7
:1053B00015F0400F0CD0202383F31188626CA36C8E
:1053C0009A422FD026F040063E60002383F31188D6
:1053D000F8BD2946FFF7A4FFD4E7202383F3118803
:1053E000B98CC9B22046FDF7D3FF002383F311889F
:1053F000D8E7202383F3118804F13000FDF790FDF6
:10540000002805DB80B23885002383F31188CFE7BD
:10541000636843F00803636026F0C00343F0400371
:105420003B60F1E7A36B002BCCD0636843F0100323
:105430006360C7E7000000000000000000000000FB
:1054400008B50348FFF794FFFDF78AF908BD00BFD0
:10545000D81700200000000000000000000000003D
:1054600010B5084C084A00212046FDF749FF074BBC
:10547000C4F8D430064BC4F8D83003212520FEF7F9
:1054800007FD10BDD8170020615300080038014007
:10549000006CDC02000000000000000000000000C2
:1054A00008B529B1037A012B04D0FFF711FF08BD1D
:1054B0000549F7E7054B9842F7D1054A936943F44C
:1054C00080439361F1E700BF64660208D8170020AB
:1054D000001002400000000000000000000000007A
:1054E000037A022B00D0704710B50446D0F8D400E0
:1054F000FFF70EFF044B9C4200D010BD034A936996
:1055000023F480439361F8E7D8170020001002408D
:105510004023C0F880307047000000000000000009
:105520000346D0F88000013121F001010144C3F8A5
:105530008010704700000000000000000000000024
:1055400010B4124B1B6D03EB001000F1804000F50E
:10555000C040836803F1005303F540535B00C0680B
:10556000C0F30900044609E053F8042B8C460CF8FC
:10557000022BC2F307224A70023C6146012CF3D889
:105580000CB11B780B705DF8044B7047005C004059
:1055900000B58C46104B1B6D03EB001000F18040F2
:1055A00000F5C040036803F1005303F540535B006E
:1055B000964642600BE0624612F8021B9CF801001E
:1055C00041EA002143F8041BAEF1020E9446BEF1FD
:1055D000000FF0DC5DF804FB005C00400000000000
:1055E0002DE9F04105460C464E4B53F821608B1CCB
:1055F00000EB83035F6816F0800F2CD07869494A6E
:1056000052F8213023F4784323F0F00343F40043AD
:1056100042F821304368C1680B4443600268D31AE2
:1056200034D03A8A9A4200D31A468368194481607A
:10563000C260E0B2FFF7ACFF3A4A52F8243023F4DC
:10564000F04323F0400383F0300343F4004343F07E
:10565000800342F8243016F4004F15D0314A52F836
:10566000243023F4784323F0F00343F0800342F81E
:10567000243016F4006F1BD0A31C05EB83035B687A
:105680005B68E1B228469847BDE8F0812A8901238A
:10569000A340DB431BB213402B81A31C05EB830308
:1056A0005B689B68002BD6D0E1B228469847D2E7CA
:1056B000BE695FFA84F8B1684046FFF741FFB368FE
:1056C0000344B36073680344736033681B1A336028
:1056D000B389013B9BB2B3817A8A824200D88BB9ED
:1056E0006A890123A340DB431BB213406B81023460
:1056F00005EB84046368DB68002BC5D0414628466F
:105700009847C1E7074A52F8243023F4904323F026
:10571000700383F4405343F4004343F0800342F8A2
:105720002430B1E7005C00400000000000000000F1
:1057300010B5254B5C6C14F4806F1CD114F4006F11
:1057400020D114F4805F08D01F4B9B6C13F4004FE2
:1057500024D01D4B6FF480525A6414F4007F2DD076
:105760001A4B5B68DB680BB118489847164B6FF40F
:1057700000725A6422E06FF480625A641348FEF7A4
:1057800027FADBE7104B1A6C42F008021A646FF438
:1057900000625A640D48FEF743FAD2E70A4A136CD6
:1057A00023F0080313640948FEF74AFAD1E704F02E
:1057B0000F010648FFF714FF034B5C6C14F4004F15
:1057C000F5D1FCF7CDFF10BD005C0040CC180020E7
:1057D00008B50248FEF774F908BD00BFCC180020D8
:1057E00038B50378012B00D038BD04460C4B9842E5
:1057F00003D02046FEF7ECF9F6E70A4AD36943F4F2
:105800000003D361084D01232B640D214A20FEF7CC
:105810003FFB03214B20FEF73BFB00232B64E8E713
:10582000CC18002000100240005C00400000000086
:1058300090F87E3043F08003014AD364704700BF84
:10584000005C0040000000000000000000000000BC
:105850002DE9F04180460D468B1C00EB83035F6809
:105860003B6803F00303022B48D9032B4CD14FF4C0
:10587000C0662D4B1C6D04EB051404F1804404F547
:10588000C0447B6943B100236360398A4046FFF717
:1058900047FE206046F02006BB69ABB17B8A3E2BF9
:1058A00037D9013B43F01F03013330D45B116FEA5A
:1058B000C3636FEA53439BB2E360798A4046FFF7C4
:1058C0002FFEA06046F4005646EA050323F4784311
:1058D00023F0F00348F280010B43134A42F82530CD
:1058E00052F8253026F4F16626F007067604760C89
:1058F00073400B4342F82530BDE8F0810BB1002620
:10590000B7E74FF40076B4E74FF40076B1E71F3302
:10591000CCE7013B43F00103013303EBD373C3F343
:105920004F039B029BB2C7E7005C004000000000F1
:1059300010B504460C4B00221A655A648022DA64C2
:105940004368DB686BB14FF41E42074B1A64204674
:10595000FFF7DEFD054BE36000212046FFF778FFEF
:1059600010BD4FF41C42F0E7005C00407466020872
:10597000074B53F8213013F4405304D0B3F5805F44
:1059800003D101207047002070470220704700BFFC
:10599000005C00400000000000000000000000006B
:1059A000064B53F8213013F0300303D0102B03D1F2
:1059B000012070470020704702207047005C0040C3
:1059C0000B4B1B6D03EB011101F1804101F5C0414F
:1059D0008B6803F1005303F540535B00002104E0A2
:1059E00053F8040B22F8020B01310329F8D9704750
:1059F000005C00400000000000000000000000000B
:105A00008B1C00EB83004068826913688BB901230B
:105A100093810B4A52F8213023F4904323F0700312
:105A200083F4405343F4004343F0800342F82130B1
:105A30007047408A0344013BB3FBF0F39381E8E7EE
:105A4000005C0040000000000000000000000000BA
:105A500010B50C468B1C00EB830042685369196833
:105A6000128A8A4200D30A46DA6099682046FFF714
:105A70008FFD084A52F8243023F4F04323F040030A
:105A800083F0300343F4004343F0800342F82430B2
:105A900010BD00BF005C00400000000000000000DE
:105AA000074A52F8213023F4904323F0700383F423
:105AB000805343F4004343F0800342F821307047A1
:105AC000005C00400000000000000000000000003A
:105AD000074A52F8213023F4F04323F0400383F0C7
:105AE000100343F4004343F0800342F82130704731
:105AF000005C00400000000000000000000000000A
